:10800000107B0120355101003FB70200CD50010027
:10801000CD500100CD500100CD500100CD500100E8
:108020000000000000000000000000002D530100CF
:10803000CD50010000000000B1520100CD50010000
:1080400079550100795501007955010079550100F4
:1080500079550100795501007955010079550100E4
:1080600079550100795501007955010079550100D4
:1080700079550100795501007955010079550100C4
:1080800079550100795501007955010079550100B4
:1080900079550100795501007955010079550100A4
:1080A0007955010079550100795501007955010094
:1080B0007955010079550100795501007955010084
:1080C0007955010079550100795501007955010074
:1080D0007955010079550100795501007955010064
:1080E0007955010079550100795501007955010054
:1080F0007955010079550100795501007955010044
:108100007955010079550100795501007955010033
:108110007955010079550100795501007955010023
:108120007955010079550100795501007955010013
:108130007955010079550100795501007955010003
:04814000795501006C
:04814400FFFFFFFF3B
:108148002DE9F04F00224FF0090BDFED205A9FED8B
:10815800206ADFED206AB1EE047ADFED1F7A4FF076
:10816800FF346FF00045DFF880A0DFF88090DFF87B
:108178008080DFF880E0DFF880C0184F184E19497A
:10818800C0ED015A80ED046AC0ED056A80ED067AFB
:10819800C0ED097AC0E9164580F800B0C0F828A0FB
:1081A800C0F82C90C0F83880C0F83CE0C0F840C057
:1081B800C764066501668260C260C26102620263CA
:1081C800426342648264BDE8F08F00BF07F0963DC9
:1081D8001C7CE13D3480D73FCDCC0C3E5DFEE33EB8
:1081E800363C85BF0000404067D5273EE63F4CC07F
:1081F80091ED3CBFFB3A403FB15083402DE9F04739
:1082080086B004AB05AE04460078CDE900360DF122
:108218000F030D4605F096FE9DF90F00E0B94FF0EB
:10822800010A04F1400904F12C0804F118075FFA67
:108238008AF3013B032B24D8DFE803F01D17110252
:108248004A463146284602F0ADFF0AF1010ABAF162
:10825800060FECD19DF90F0006B0BDE8F087424645
:108268003146284602F09EFFEFE73A463146284657
:1082780002F098FFE9E731462846221D02F092FFF6
:10828800E3E73146284602F019FD84ED180ADCE7D9
:108298002DE9F0432DED048B83B0BDF84040054631
:1082A800DDE90E89B4F5E16F17461E46B0EE408A47
:1082B800F0EE608A6BD028D941F270739C422ED0C0
:1082C80047F230539C4208BF012408D1D5E9160172
:1082D8004FF0FF326FF0004306F0D8FA08B39FED75
:1082E800309A4FF0FF326FF000433846314606F0BF
:1082F800CDFA08B9C5E9167638EE490A30EE680AAB
:1083080003B0BDEC048BBDE8F083642C05D0B4F554
:10831800967F08BF0424D9D0E1E70524D6E70224D4
:10832800D4E7D5E91601B8EB000069EB010106F0C6
:1083380041FC19A3D3E9002306F094FD0B4602463D
:10834800CDE9002306F05CFFDDE9002305EB84049A
:1083580007EE900AD4ED009A94ED057A67EEA99A93
:1083680094ED0A9A1046194627EE899A79EE879A6B
:1083780006F04EFC06F044FF07EE900A94ED0F7AE3
:1083880079EE277A77EE877A89EEA79AA9E790EDB2
:10839800189AA6E7AFF300800000000065CDCD4134
:1083A800000000002DE9F047052482B007469046FA
:1083B80000780DF103020D468DF8034005F0E4FD49
:1083C8009DF80360019036B3012407F1400A07F1D4
:1083D8002C09E3B2013B042B0BD8DFE803F0311082
:1083E8002A2303004146284697ED180A01AA02F0FD
:1083F8007DFCA64204F101030CD01C46E9E701AB61
:108408004246294607F1180002F02EFEA64204F162
:108418000103F2D10198C0F3072328706B7002B0F2
:10842800BDE8F08742462946504601AB02F01CFEE3
:10843800DFE742462946484601AB02F015FED8E779
:108448004246294601AB381D02F00EFED1E700BFB7
:108458002DE9F043012485B08046914600780DF15E
:108468000B020E468DF80B4005F08EFD9DF80B5063
:10847800039035B1002403AF54B10134A542FBD1B8
:108488000398C0F307233070737005B0BDE8F0831C
:10849800D8E916014B463246009702F075FCECE726
:1084A80070B586B004AB05AE04460078CDE9003659
:1084B8000DF10F030D4605F045FD9DF90F0008B1BC
:1084C80006B070BD3146284602F042FCC4E91601E8
:1084D8009DF90F0006B070BD2DE9F04F2DED028B10
:1084E8004FF0000B99B0259D9146C5E900BBC5E941
:1084F80002BB85F839B0A5F83AB0A5F83CB085F8C4
:108508003EB0D0F8D62AD0F8DACAD0F8DE7AD0F859
:10851800E26A2A61EE61C5F814C0AF61D0F8E62AB4
:108528001E462A62D0F8C23AD0F8CA7AD0F8CE2AC3
:10853800D0F8C6CA2A63C5F828C0EF626B62D0F8C3
:10854800D23A00F6F80A6B6390F8EA3A044685F8DE
:108558003830249B00F6C22783F800B0B0F85C3AA4
:10856800059300F0E1FDDAE9002352EA030104D0A3
:1085780094F8BD1A002900F0FE8094F8EB3A93B302
:1085880094F8EA3A94F8ED2A013BDBB29A4204D116
:1085980094F8BD3A022B00F059810022012194F889
:1085A800B83A85F83A3094F8B60AA34B85F83B00F8
:1085B80094F8B70A19EB030346EB0202C5E9003247
:1085C80085F83C0085F8391002222946204601F03A
:1085D80077F90423A4F85A3ACAE9009619B0BDEC11
:1085E800028BBDE8F08F0DF13E070DF13D032A46E1
:1085F80001212046009700F09DFD9DF83D30BDF813
:108608003E803BB194F8B83A85F83A3094F8B63AD7
:1086180085F83B302A460DF13D030221204600979C
:1086280000F088FDBDF83E309DF83D20984528BFF4
:1086380098463AB194F8B73A85F83C3094F8B63A87
:1086480085F83B302A460DF13D030321204600976B
:1086580000F070FDBDF83E309DF83D20984528BFDC
:108668009846002A40F0CE802A4604210DF13D03A9
:108678002046009700F05EFDBDF83E300599434561
:1086880028BF4346994228BF19469DF83D208B468E
:10869800002A40F0718104F51067B4F8B23AB4F8D2
:1086A8005E2AB3FBFBF10BFB1131ABEB010B1FFA9D
:1086B8008BFB5B449BB2B3FBF2F102FB1133CAE9BB
:1086C80000969FED5B0BA4F8B23AA4F85ABAADF83D
:1086D8003E2005F0E1FE51EC100B06F077FF0B464B
:1086E8004FF00008A0FB0B0103FB0B113B687A68F5
:1086F80010EB090941EB0606B9EB0300C5E9009642
:1087080066EB020184F8BA8A06F09AFEDFED4B8A1E
:1087180007EE900A9FED4A8AC7EEA87AF4EEC87A67
:10872800F1EE10FA1FD49FED477AF4EEC77AF1EE16
:1087380010FA18DCD4F80809D4F80C19B9EB0000C1
:1087480066EB010106F07CFE07EE900AC7EEA87AF8
:10875800F4EEC87AF1EE10FA4ABF662384F8BB8AB1
:1087680084F8BB3A3AE7652384F8BB3A19B0BDEC04
:10877800028BBDE8F08FB9EB02010A914FF00001BE
:10878800B4F85A0A66EB03029FED290B0B92CDE968
:10879800060105F081FE51EC100B06F017FF8C4620
:1087A800069B0B9AA0FB03010CFB0311030943EA88
:1087B800017302930A9BCDE91001C31A08934FEA8B
:1087C8002113039361EB02030993DDE90823DDE933
:1087D80002BC93457CEB0303C0F265810A9B1B1A1C
:1087E8000C930B9B63EB01030D93DDE90C23DDE98F
:1087F8000201904271EB0303BFF6BFAE6423249AD3
:108808001370BAE64FF6FF720F4B94F8B61A5B7BFB
:1088180085F83B1004EB4303B3F8A0389342ADF856
:108828003E303FF421AFAB6843F40053AB601BE725
:1088380000000000D0126341C00E1602286B6E4E75
:1088480000007042000070432800030094F8EC3ADE
:10885800002B3FF4A2AE94F8BF3A94F8BE0A18442D
:1088680006F06CF941EC100B94F8C00A00F044FBD8
:1088780094F8BE2A0130C3B29A4284F8C03ABFF4D1
:108888008CAE38687968BA68FB680DF14C0CE04624
:10889800ACE80F0038692F46CCF80000BDF84C0052
:1088A80006F03CF902940D4604460DF15E0B38F8CB
:1088B800020F06F033F902460B462046294605F01A
:1088C800F1FFC34504460D46F1D106F07FFE029C38
:1088D8003D4694F8BF7AA7FB002301FB07334FEA14
:1088E800C20CDF001CEB020C47EA527743EB070788
:1088F8004FEA8C01BF0047EA9C77B1EB020C67EBAB
:10890800030E4FEA8E0747EA9C77BE4690484FEA27
:108918008C0CA2FB007800FB038817EB090348EBDB
:108928000602C5E90032294600222046CDE910CECC
:1089380000F0C6FFDDE910780123002F84F8C03A63
:1089480078F10003C0F2D7800A2200233846414656
:1089580006F004FE0A22054600233846414606F082
:10896800FDFD002B08BF052A80F0E580A8B2A4F819
:108978005A0ACAE9009631E6012385F8393094F895
:10898800B52A0DF13D0302F2375234F8121010AA3D
:10899800A98194F8B70A13A985F83C0094F8B67A27
:1089A800204685F83B7002F097F8DDED137AF5EE76
:1089B800407AF1EE10FA0ED194F8BA3A5BB994F80D
:1089C800B53A04F5106703F2335334F81330EB81EA
:1089D800C7E9009661E604F5106704F60818D7E9B8
:1089E8000023D8E90001824273EB010CCDE9102382
:1089F80003DA02460B46CDE91001B9EB020066EB3B
:108A0800030106F01DFDDFED537A07EE100A87EE2D
:108A1800270AF1EE000A8DED130A07F00DFEF0EEBD
:108A2800080AB0EE408A9DED130A07F005FEDFED57
:108A38004A6ADFED4A7A9DED137A28EE268A20EEFF
:108A4800270ADFED476A67EE077A38EE008A67EE95
:108A5800A67ADFED446A78EE277A27EE267ADFEDEC
:108A6800426A77EE877A9FED417A77EEA67A67EECB
:108A7800877AF8FE677AFCEEE77A17EE902A94F880
:108A8800BA3AEA8143BB00939FED390A4A46334616
:108A98001621204601F02EFF94F8BA3A002B97D001
:108AA800C8E90096F9E59FED280BDAE90067B4F804
:108AB8005A8A05F0F1FC51EC100B06F087FD64248E
:108AC800A0FB082301FB0833961947EB0303C5E90C
:108AD8000063249B1C7081E50023B7EE000A009315
:108AE8004A4633461621204601F004FFAB6843F49A
:108AF8000013AB60D0E7B8F1004F08BF002F1DD0BE
:108B08007F4268EB48080A2200233846414606F0AF
:108B180025FD0D460290414638460A22002303955A
:108B280006F01CFDDDE90201002B08BF052A08D26A
:108B3800404280B21BE7681C80B218E743F233302A
:108B480015E7C04380B212E700000000D01263416D
:108B5800003B5808286B6E4E598207B0DFE0C234DC
:108B68003767D9B85A8E863C6A92E43E00007A4448
:108B780000000000000000002DE9F04F2DED048BEF
:108B8800044600200D46164698468DB01A9F0DF1F2
:108B9800080904F6782C04F6982A3870CE46DCF8D2
:108BA8000000DCF80410DCF80820DCF80C300CF1CC
:108BB800100CD445AEE80F0009F11009EED1DCF82D
:108BC8000000BCF80430C9F80000A9F8043076BBEE
:108BD8000C2384F8EB6A3B70204602A900F0D8FA0F
:108BE800002840F0248197F90000002856DB002374
:108BF800B94EDFF8F89203E05D1C1A2D2B464DD0D4
:108C080046FA03F2D507F7D513F809200CA901EBAA
:108C1800420002F23B5130F82A2C34F811005D1C56
:108C28009042E9B2E9D0204600F068FCE5E72B79EC
:108C3800013BDAB2012A40D900229FEDA88A9FEDB4
:108C4800A89ADFEDA88ADFF890B205EBC60684F88B
:108C5800EB2A0092CDF8048012E04BFA03F2D20717
:108C680011D5012202FA03F3009A13EA020A00F06E
:108C78009380F3233B700835B54209D02B79013B2B
:108C8800DBB2192BE9D90A230835B5423B70F5D177
:108C980097F90030DDF80480002B9DDA98F8003051
:108CA800072B22D8F1234FF0000E3B7088F800E024
:108CB8000DB0BDEC048BBDE8F08FD5ED007AF5EE74
:108CC800407AF1EE10FAB7D147F23053BDF80820D8
:108CD8009A4200F0ED80BDF80A209A4200F0E88040
:108CE8000B234FF0000E3B70E0E700259FED7B6AF9
:108CF800AE46DFED7B5ADFF8F8A177497A4FDFF807
:108D0800ECC1DDF86CB002E00135182DCED001229F
:108D1800AA4012EA0A0FF7D00EF1010E5FFA8EFE92
:108D28000EF1FF360BEBC606013586ED006A00230F
:108D38004FF6FF7935710CE0484507D007EE900AE9
:108D4800F8EEE77A85EEA77A86ED007A01331A2BDA
:108D5800DBD041FA03F0C007F8D557F823000242E8
:108D6800F4D0D6ED007AF4EE467AF1EE10FA13F864
:108D78000C0000F23B5034F81000DDD007EE100A6A
:108D8800B8EEC77AC5EE876AF4EEE67AF1EE10FA25
:108D980048BFC6ED006AD9E7D5ED007AF5EE407A0E
:108DA800F1EE10FA009A42EA0302009229D1F62362
:108DB8003B70D5ED007AF5EE407AF1EE10FAB0EEA0
:108DC800677A1ED1B5EEC07AF1EE10FA31DCB5EE55
:108DD800407AF1EE10FA14BF4FF0FF3300231FFA68
:108DE80083F897F90030002B7FF445AF3F4A2B7981
:108DF800134413F8013C0CAA02EB430323F82A8C12
:108E080039E7F4EE487AF1EE10FA4ED0B2EE047A71
:108E1800F4EEC77AF1EE10FA04DCF4EEE87AF1EE3B
:108E280010FA4DD5F2233B7095ED007ACAE73870F9
:108E3800DBE6B4EEC87AF1EE10FAC8D5C9EE077AC7
:108E4800F8FE677AFCEEE77A17EE903A1FFA83F895
:108E5800264A2B79134413F8013C534403F2A743E1
:108E680034F813900AF1130A484605F057FE18A380
:108E7800D3E9002305F0CCFE41EC100B05F00CFB08
:108E880051EC100B06F09CF980B2A9EB00039BB2E1
:108E9800814443451FFA89F901D8C145A1D2BAF1E5
:108EA800720FD5D1F4233B70E5E6B0EE677A8EE712
:108EB80094F9BB3A3BB901229E4684F8BA2AF5E6F2
:108EC800B0EE677A7EE74FF0000E3B70EEE600BF2B
:108ED8007B14AE47E17A843FEF79F20300FF7F47C6
:108EE8000000C8420E74DA3A40000300DC000300B8
:108EF8000F20E000000000002DE9F84F2DED028B57
:108F080055EC104B074605F0C7FA51EC100B06F06C
:108F180057F9C6B2304605F011FE22462B4606F038
:108F2800DFF840B1BDEC028BB7FBF6F306FB13701C
:108F3800C0B2BDE8F88F384605F0F0FD002241ECDC
:108F4800180B00232046294606F0CAF8B0BB45ECAA
:108F5800104B20F065FA204653EC102B294606F0FA
:108F6800BFF858BB22462B4651EC180B05F07AFF88
:108F780021F0004700221E4B3946064605F092FCB8
:108F880041EC100B20F04CFA304653EC102B3946CC
:108F980005F086FC002280468946164B3046394645
:108FA80005F036FE29F0004B02460B46404659466E
:108FB80006F0AAF810B19FED0C0B07E0B0EE480AD6
:108FC800F0EE680A45EC114B20F05EFA05F064FA01
:108FD80051EC100B06F0F4F8BDEC028BC0B2BDE802
:108FE800F88F00BFAFF30080000000000000000011
:108FF8000000E03F0000B03C2DE9F0470646344D44
:1090080001F010FC334F002303E05C1C1A2C2346AC
:1090180010D045FA03F2D107F7D5DA5D5C1C02F2ED
:109028003B5336F813203046E1B201F0CBFC1A2C42
:109038002346EED1304601F079FB0025DFF8909009
:10904800244FDFF8988002E001351A2D1AD049FA2A
:1090580005F3DA07F8D5EB5D334493F89D3A002B16
:10906800F2D0002338F915A002E00B2C2346EBD0F0
:109078004AFA03F25C1CD307F7D53046E1B201F097
:1090880069FCF2E700231449C6F8AA3AC978C6F879
:109098009E3AC6F8A23AC6F8A63AC6F8AD3A86F895
:1090A800B53A06EB41011A46B1F8A00886F8B93A74
:1090B80006F5266333F8021B0132884203D0042ADE
:1090C800F8D1BDE8F08786F8B52ABDE8F08700BF7B
:1090D800EF79F203DC00030028000300A800030076
:1090E800F0B41468049F04EB030C8C4516D805995A
:1090F8008B4216D8002B0CDD791ECE18C7F101075C
:1091080000E014687B1811F8015F2344B142C5548C
:10911800F7D10020C2F800C0F0BC70476FF02800FB
:10912800FAE76FF02500F7E790F8B93A03B9704706
:1091380062E700BF70B400264FF6FF75134C013983
:10914800645C00EB4404B4F8A0481E70039EAC4273
:10915800348013D0B0F8B26AB6FBF4F504FB15649A
:10916800A4B26CB901209468C9B200FA01F1214394
:10917800187082F83D0082F83E00916070BC70471C
:1091880090F8BA0A0028F9D0ECE700BF28000300DD
:109198000023F0B56FF0004C1C464FF0010E4FF65F
:1091A800FF772C4D2C4E05E0BA4218BF012401333D
:1091B8001A2B0FD045FA03F2D207F8D59A5D62440C
:1091C80031F81220B2F5E16FEED101331A2B80F895
:1091D800EBEAEFD190F8EB3A8BBBB0F85C7A1D4C18
:1091E80038461D4D44FA03F2D60706D55A5D013AB2
:1091F80031F81220904228BF104601331A2BF1D1C2
:109208004FF6FF76B04223D0B7FBF0F300FB1373A1
:109218009BB28BB90F4D104F45FA03F2D20714D504
:10922800DA5D013A31F81240B4420ED0B4FBF0F2E4
:1092380000FB124292B242B16FF00F00F0BD002C59
:109248000CBF00206FF00F00F0BD01331A2BE3D1E3
:109258000020F0BDEF79F203DC0003002DE9F043B4
:1092680040F2BD184FF0000987B004AA0446002652
:109278004FF0040C022713460D46CDE90289DDE9BB
:10928800020182E8030084F802C003CBE77026706D
:109298006060A16066702B682046103B2373C3F39F
:1092A8000721C3F30742C3F30763A273E373617330
:1092B8000DEB0C02296805F0C9FA2B689DF804200B
:1092C80023441A712B689DF8052023445A712B6892
:1092D80023449E7128680444E6712B6808332B6088
:1092E80007B0BDE8F08300BF2DE9F0470D2482B038
:1092F80006461746FE200DF103020D468DF8034081
:1093080004F042FE9DF803800190B8F1000F2AD0C6
:10931800012406F6D62A06F6C229E3B2013B0C2B35
:109328000FD8DFE803F0655D756D554D453D352E69
:10933800271407003A46294696F8EE0A01AB01F0D1
:10934800FBFCA04504F101030CD01C46E5E701AB8A
:109358003A46294696F8EA0A01F0EEFCA04504F1DF
:109368000103F2D10198C0F3072328706B7002B093
:10937800BDE8F0873A462946504601AB02F0A6F907
:10938800DFE73A462946484601AB02F09FF9D8E79D
:109398003A46294601AB06F6BE2001F06FFCD0E73D
:1093A8003A46294696F8BC0A01AB01F0C5FCC8E765
:1093B8003A462946B6F85C0A01AB01F037FCC0E72B
:1093C8003A46294601AB06F6342002F03DF9B8E7E3
:1093D8003A46294601AB06F5156002F007F9B0E7F1
:1093E8003A46294696F8B70A01AB01F0A5FCA8E76A
:1093F8003A46294696F8B60A01AB01F09DFCA0E76B
:109408003A46294601AB06F5266002F0B3F898E71C
:109418003A46294696F8B80A01AB01F08DFC90E768
:10942800F0B400264FF6FF7400251660C3E9004526
:1094380069B100EB0114417B182905D1D0E9006717
:1094480081681160C3E900671030A042F3D1F0BC15
:10945800704700BF00B52DED028B85B00DF10303F9
:1094680002AA01A9B0EE408A01F02AF99DF803305A
:109478006BB1DDED017AF4EE487AF1EE10FA14BF23
:109488000120002005B0BDEC028B5DF804FB012033
:1094980005B0BDEC028B5DF804FB00BFF0B40024FE
:1094A80082B0DDE9066C34708CF800400D6847190D
:1094B8007F78455D8DF805708DF80450BDF804700F
:1094C800089D9F422F6004D9E023337002B0F0BC9E
:1094D80070474FB12346541E0D68C618755D013399
:1094E8009F4204F8015FF7D193788CF800300B683D
:1094F8001F440F6002B0F0BC704700BF0B4B10B4A4
:10950800194411F8013C00EB4301B1F8764A944242
:1095180004D00124013B034483F89E4A0123A1F8A7
:10952800762A5DF8044B80F8B93A7047DC000300EE
:109538000139032900D9704710B50446483003F0B3
:109548008DFD0121204601F09DFA04F12C0004F064
:1095580051FA2046BDE81040022101F093BA00BF3D
:109568002DE9F04F0123064600F64E144FF481789A
:109578004FF0050E25464FF6FF7C9E4F80F8EE3AD9
:109588000FCFA6F8B68AC6F8600AC6F8641AC6F8F5
:10959800682A03CFC6F86C3A86F8B8EAC6F8700AA3
:1095A800C6F8741A06F6322725F802CFBD42FBD159
:1095B8004FF06413642541F2707240F2DC50C6F833
:1095C8005839C6F86439C6F87839C6F88439A6F81F
:1095D8009059894B894D8A49DFF854C2C6F8F03949
:1095E800C6F8F439C6F8C439C6F8D439C6F8D0591B
:1095F800844B854DC6F8181AC6F8C8C98349DFF8E0
:1096080034C2C6F85039C6F85439C6F86039C6F8B5
:109618006839C6F88039C6F85C597D4BC6F87C595C
:10962800C6F88859DFF810E27A4DC6F874C9A6F86A
:10963800DC29A6F8DA29A6F8C229A6F8160AA6F897
:10964800FC09C6F8CC19C6F88C59C6F89C39C6F876
:10965800A039C6F8A439C6F8A8390EF12008C6F80A
:10966800AC3906F5126CA6F8D829C6F8B039C6F890
:10967800B439A6F8FE09C6F86C19C6F8701975460B
:109688000FCD4545CCF80000CCF80410CCF80820E4
:10969800CCF80C300EF1100E0CF1100CEFD1DFED00
:1096A8005E7A00234FF08041DEF80000DFF88CB1CD
:1096B800CCF8000006F61810C0ED007A06F6141073
:1096C800036006F51160036006F61C10C0F800B0D0
:1096D80006F62410036006F628100360DFF860A180
:1096E80006F62C100360DFF85C9106F63813C3F811
:1096F80000A0DFF8548106F63413C3F80090474AF7
:1097080006F51363C3F8008006F63C131A6006F6E4
:10971800441206F64813116019603B464FF6FF7174
:109728003F4D06F64C12156006F6582223F8021F24
:109738009342FBD147F230553A4B3B4AA6F85C5A64
:10974800C6F8BC3A4FF4A070052102F10C0506F5E5
:109758002C6306F6D42C03E012F9011F35F8020F2A
:1097680023F8021F63459882F6D10A2200234FF698
:10977800FF7186F8EA2AA6F85E3A34F8023F8B426F
:1097880005D0B6F85E2A9A4238BFA6F85E3ABC42BF
:10979800F3D100230127254CDFF8B0C044FA03F2C7
:1097A800D20711D513F80C2006EB4201B1F8320AA2
:1097B800B1F8765A013A85421CBF921982F89E7A0E
:1097C800A1F8760A86F8B97A01331A2BE6D1012175
:1097D80006F69D2306F52B6203F8011F9342FBD181
:1097E80096F8B93A0BB9BDE8F08F3046BDE8F04FAE
:1097F80002E400BF60FF02007017701708077017B7
:10980800DC05DC053075307564003075080708071D
:109818002C012C0130756400000082C2F874C44C1D
:10982800000010410000050AB8FF0200EF79F203BA
:10983800701708070807640088FF020000002A4321
:109848000000FA420000C8420024F449DC0003008A
:10985800F0B400240022002347F230564FF6FF757B
:1098680080F8B54AA0F8B24A214600F6F80700F594
:109878001064C7E90023C4E9002300F60814C4E90A
:10988800002300F67623A0F85A6A00F69D2200F617
:109898009C2423F8025FA34202F8011FF9D14FF478
:1098A800CC42F0BC012380F8B91A80F8B41A80F8C9
:1098B800EB1AA0F8EC1AA0F8BA2A80F8C03A704758
:1098C80090F8BD3A934211D06AB9002380F8B43AAF
:1098D8008B6081F83D30002380F8BD2A80F8EC3A8F
:1098E80081F83E207047931E012BEED9B0F8803ADC
:1098F80070B4B3F5E16F47D08B68B0F8824AB4F51D
:10990800E16FB0F8844A04BF43F001038B60B4F5FB
:10991800E16FB0F8864A04BF43F002038B60B4F5E8
:10992800E16FB0F89C4A04BF43F008038B60B4F5BC
:10993800E16FB0F8944A04BF43F400038B60B4F5B8
:10994800E16F10D0B0F8964AB4F5E16F0BD0B0F8DB
:10995800984AB4F5E16F06D0B0F89A4AB4F5E16FC9
:1099680001D043B104E043F4000343F00F038B60DC
:10997800012381F83D30002370BC80F8BD2A80F8AF
:10998800EC3A81F83E2070474FF6FF76084B8D6819
:109998005C7B45F0040300EB4404B4F8A0488B60FA
:1099A800B442AAD045F4005343F004038B60A4E703
:1099B800280003002DE9F0430C46002189B0109ED1
:1099C800172C316004D8DB221A7009B0BDE8F08387
:1099D800944204D9DA221A7009B0BDE8F0830178FC
:1099E80042788DF80C108DF80D208178C2788DF8AA
:1099F8000E108DF80F20039A0546B2F1017F06D0AC
:109A0800013204D0DE221A7009B0BDE8F08329467D
:109A180006AF3A464FF0000940F2BD1851F8040F5E
:109A2800496803C204AA82E80300DDE90401494544
:109A380008BF404507D0002908BFB0F1FF3F02D05A
:109A4800DD221A70C1E72A7BA97B8DF80C20687B80
:109A5800EA7B8DF80D008DF80F208DF80E10039914
:109A680001F11802A24202D0D8221A70ADE71031D3
:109A780002AA28462C44019304F0E8FE14F8042CAA
:109A88009DF80810019B914202D0DC221A709CE7D5
:109A98009DF8091014F8032C9142F6D114F8022C01
:109AA800002AF2D114F8012C002AEED110213160DD
:109AB8001A708AE72DE9F04786B004AB05AECDE908
:109AC800003604460DF10F03FE200D4604F03AFA65
:109AD8009DF90F00002862D14FF0010A04F6D6293B
:109AE80004F6C22804F6BE275FFA8AF3013B0B2B63
:109AF80000F2A680DFE803F099928B847D766F628E
:109B08005C6956063146284601F010F984F8EA0ADD
:109B18000AF1010ABAF10E0FE6D100234FF6FF75DC
:109B2800A4F85E3A04F6322004F64E1333F8022FF6
:109B3800AA4205D0B4F85E1A914238BFA4F85E2A4A
:109B48009842F3D100230127414DDFF808C145FAB7
:109B580003F2D20711D513F80C2004EB4201B1F837
:109B6800320AB1F8766A013A86421CBF121982F8A5
:109B78009E7AA1F8760A84F8B97A01331A2BE6D1CD
:109B8800012104F69D2304F52B6203F8011F93427B
:109B9800FBD194F8B93A002B4ED19DF90F0006B0CD
:109BA800BDE8F0874A463146284601F03FFAAFE75C
:109BB8003A463146284601F04DF8A9E7314628468D
:109BC80001F0B4F884F8BC0AA2E7424631462846B8
:109BD80001F02CFA9CE73146284601F015F8A4F864
:109BE8005C0A95E73146284604F6342201F0CCF9A0
:109BF8008EE73146284604F5156201F07DF987E7BE
:109C08003146284604F5266201F018F980E7314606
:109C1800284601F08BF884F8B80A79E731462846D7
:109C280001F084F884F8B70A72E73146284601F053
:109C38007DF884F8B60A6BE72046FFF7DDF9ACE754
:109C48003146284601F072F884F8EE0A60E700BF52
:109C5800EF79F203DC000300032906D98378FE2B91
:109C68000CBF00206FF0630070476FF0670070470B
:109C7800074A0849037F0162426282623BB10022BF
:109C8800012B026103D0022B426118BF8261704729
:109C98000AD7233B0AD7A33C0023027B0361436115
:109CA80002B18360704700BF034670B44FF6FF747B
:109CB80018480139425C03EB4202B2F89258A542B7
:109CC80007D000EB4104B4F90C50D3F89048A543F1
:109CD80002D0002070BC704700EB8100406AD3F8C6
:109CE8007458A843F5D1B2F8E458B2F8D668681C9D
:109CF80085B2B5FBF6F006FB105080B2A2F8E40876
:109D08000028E6D1012202FA01F10C431046C3F8FB
:109D18009048DFE7D8FF0200F8B5044603F0B6FA2A
:109D280004F5CC7003F0E0FE04F12C0003F0F6FC1F
:109D380004F1480002F03EFC04F59870FEF700FAC2
:109D48000A2104F5E87003F0CFFB04F5F47001F084
:109D5800F3FE00260020002704F6080304F5E66257
:109D680004F6280143F8040B8B42E2E80267F9D1B4
:109D780000224FF0000C002600271046C4F8742873
:109D880004F5ED6104F6770204F6740543F804CB94
:109D9800AB42E1E9026702F8010FF7D1012600257D
:109DA8004FF6FF72C4F88C08C4F8900804F69403C0
:109DB80004F6A201A3F84460A3F8525023F8022B3A
:109DC8009942F7D14FF6FF71A4F8A228A4F8A42865
:109DD800A4F8A628A4F8A828A4F8AA28A4F8AC28C7
:109DE800A4F8AE28A4F8B02804F50B6304F6D6024C
:109DF80023F8021F9342FBD12046F8BD10B44C1E35
:109E080011461A460A2C07D8DFE804F00B1015068D
:109E1800190606061F252B006FF063005DF8044B3A
:109E280070475DF8044B483002F07ABC5DF8044B8B
:109E38002C3003F085BC5DF8044B03F033BA5DF8B1
:109E4800044B00F5CC7003F06BBE5DF8044B00F5D5
:109E58009870FEF7D3B95DF8044B00F5E87003F08D
:109E68004FBB5DF8044B00F5F47001F0CDBE00BFA8
:109E78002DE9F04700272DED028B00239EB008EE58
:109E8800101AC0F890780521044616468DF810700F
:109E98008DF811708DF81270059306930793189337
:109EA80019931A931B931C931D9308930993FFF717
:109EB800FBFE58B104F6240393ED007AF8EEC87A55
:109EC800B4EE677AF1EE10FA00F0F2814FF0FF3845
:109ED8006FF00049A04D03212046FFF7E5FE58B179
:109EE80004F6240393ED007AF8EEC87AB4EE677AA4
:109EF800F1EE10FA00F0268201212046FFF7D4FE89
:109F080058B104F6240393ED007AF8EEC87AB4EE5B
:109F1800677AF1EE10FA00F0288202212046FFF756
:109F2800C3FE58B104F6240393ED007AF8EEC87A1C
:109F3800B4EE677AF1EE10FA00F054820921204657
:109F4800FFF7B2FE58B104F6240393ED007AF8EE59
:109F5800C87AB4EE677AF1EE10FA00F0DD82DFED30
:109F68007F0A0A212046FFF79FFE58B104F6240312
:109F7800B8EEC88AD3ED007AF4EE487AF1EE10FA1A
:109F880000F0FC820B212046FFF78EFE002840F0EF
:109F9800E7804FF6FF726B7904EB4301B1F8B01814
:109FA800581E914204D0D4F87428520700F1B680A4
:109FB8004FF6FF72AB7904EB4301B1F8B018581EA5
:109FC800914204D0D4F87428D70700F189804FF65D
:109FD800FF72EB7904EB4301B1F8B018581E9142B7
:109FE80003D0D4F8742896075CD44FF6FF722B7A06
:109FF80004EB4301B1F8B018581E914203D0D4F8CD
:10A008007428110730D44FF6FF726B7E04EB4301BE
:10A01800B1F8B018581E91421ED0D4F87428120214
:10A028001AD5002104F62402156803F20922ED333B
:10A0380004EBC303204404EB820204F5ED66D6E981
:10A0480000671560C3E9006780F87818D4F88C3881
:10A0580043F00073C4F88C380023C4F874381EB079
:10A06800BDEC028BBDE8F087002104F61402D2F89B
:10A0780000C003F20922ED3304EBC303204404EBD0
:10A08800820204F5E966D6E90067C2F800C0C3E9B0
:10A09800006780F87818D4F88C3843F48073C4F8D3
:10A0A8008C38B0E7002104F60C02D2F800C003F2A5
:10A0B8000922ED3304EBC303204404EB820204F5C8
:10A0C800E766D6E90067C2F800C0C3E9006780F810
:10A0D8007818D4F88C3843F08003C4F88C3884E7B7
:10A0E800002104F60802D2F800C003F20922ED3379
:10A0F80004EBC303204404EB820204F5E666D6E9C8
:10A108000067C2F800C0C3E9006780F87818D4F87F
:10A118008C3843F04003C4F88C3858E7002104F524
:10A128000162D2F800C003F20922ED3304EBC30345
:10A13800204404EB820204F5E866D6E90067C2F819
:10A1480000C0C3E9006780F87818D4F88C3843F069
:10A158002003C4F88C382BE7DC0003000000000063
:10A1680004F6080004F60C0190ED002AD1ED001A5F
:10A1780004F50162314604F6240704F6140304F5D5
:10A18800E960013E92ED001AD0E9008993ED000ADA
:10A19800D7ED000A0DF1130314AA04F5F470F6B212
:10A1A80001F0BAFD07EE906A97ED007AF8EEE77ACB
:10A1B800B4EE677AF1EE10FA7FF4EBAE4FF6FF7368
:10A1C800B4F8CE289A4217D06B7D149803F209216F
:10A1D80004EB8101086003F1ED029DF8131023449C
:10A1E80004EBC202C2E9008983F87718D4F88C38E6
:10A1F80043F40013C4F88C384FF6FF73B4F8D02832
:10A208009A4217D0AB7D159803F2092104EB81011E
:10A21800086003F1ED029DF81310234404EBC20219
:10A22800C2E9008983F87718D4F88C3843F480039E
:10A23800C4F88C384FF6FF73B4F8D2289A4217D076
:10A24800EB7D169803F2092104EB8101086003F104
:10A25800ED029DF81310234404EBC202C2E9008901
:10A2680083F87718D4F88C3843F40003C4F88C3892
:10A278004FF6FF73B4F8D4289A423FF48AAE2B7E87
:10A28800179803F2092104EB8101086003F1ED023C
:10A298009DF81310234404EBC202C2E9008983F835
:10A2A8007718D4F88C3843F08073C4F88C3870E68B
:10A2B80004A904F5E9630DF1120209AD0DF11100CD
:10A2C800D3E90089CDE901054B4603920091424646
:10A2D80004F5CC7003F04CFC9DF81030BD4D07EE32
:10A2E800103A9DF81130B8EE477A07EE903AF8EE3A
:10A2F800677AEA7A2B7B02F2092002F1ED01013A32
:10A3080004EB800004EBC101224480ED007AC1E92E
:10A31800008982F87878D4F88C2803F2092003F1B0
:10A32800ED01013B42F4C05204EB800004EBC10193
:10A338002344C0ED007AC1E9008983F87878C4F82D
:10A348008C28C8E504F60C0104F5016204F6140330
:10A3580091ED001AD2ED000A93ED000A204607ABF2
:10A3680006AA05A902F0BAFFC6E504F61C03D3ED58
:10A37800007AF5EE407AF1EE10FA14BF01200020C1
:10A3880004F50263009008A918AAD3ED001A04F195
:10A398004800CDE901219DF812309DF811209DF863
:10A3A80010109DED071ADDED060A9DED050A02F075
:10A3B80037FA00206B7C089F03F2092103F1ED02B4
:10A3C800013B234404EB810104EBC2020F60C2E9A4
:10A3D800008983F87808D4F88C3843F40033C4F83B
:10A3E8008C389AE512A910AA0EABCDE90121009389
:10A3F8000AAA0CAB18A904F12C00DDED090A9DEDA1
:10A40800080A03F0B9F9DDED0B5A9DED0D6ADDED93
:10A418000F6A9DED117ADDED137AF8FE655AB8FEE4
:10A42800466AF8FE666AB8FE477AF8FE677AFCEE76
:10A43800E55ABCEEC66AFCEEE66ABCEEC77AFCEEEC
:10A44800E77A15EE902A16EE10EA16EE90CA17EE85
:10A45800107A17EE900A2B78DDF828A003F209216C
:10A4680004EB8101C1F800A003F1ED0104EBC10187
:10A478002344C1E9008983F877286B78DDF830A098
:10A4880003F2092204EB8202D4F88C18C2F800A067
:10A49800E21803F1ED0AAB7804EBCA0ACAE90089AD
:10A4A80082F877E8DDF838E003F2092204EB82024B
:10A4B800C2F800E0EA7803F1ED0E04EBCE0E234477
:10A4C800CEE9008983F877C8DDF840E002F2092C6C
:10A4D80004EB8C0CCCF800E02B7D02F1ED0C04EBC6
:10A4E800CC0C2244CCE9008982F8777803F209225F
:10A4F800129F04EB8202176041F4801103F1ED0210
:10A5080041F00F0104EBC2022344C2E9008983F839
:10A518007708C4F88C1811E504F5E86142464B4603
:10A52800D1E90089B4F84A70CDE90089029704F5A9
:10A53800016104F61800D0ED000A91ED000A04F557
:10A548009870FDF7A5FE00206B7BF0EE400A03F241
:10A55800092103F1ED02013B234404EB810104EBE3
:10A56800C20281ED000AC2E9008983F87808D4F8AC
:10A578008C3843F40053C4F88C38F2E404F60C0227
:10A5880004F5016392ED001A93ED000A04F5E870F2
:10A5980004F5E863D3E9008902F0CEFF0020AB7B25
:10A5A8008DED050A03F2092103F1ED02013B234475
:10A5B80004EB810104EBC20281ED000AC2E90089C3
:10A5C80083F87808D4F88C3843F48043C4F88C387E
:10A5D800D8E400BFDC00030010B44C1E11461A4634
:10A5E8009DF804300A2C07D8DFE804F00A0F140697
:10A5F800180606061E242A0000205DF8044B704742
:10A608005DF8044B483002F00BBC5DF8044B2C306D
:10A6180003F074B95DF8044B02F0BCBE5DF8044B5E
:10A6280000F5CC7003F04CBB5DF8044B00F5987056
:10A63800FDF7B8BE5DF8044B00F5E87002F0B6BF50
:10A648005DF8044B00F5F47001F022BD10B44C1E07
:10A6580011461A469DF804300A2C07D8DFE804F0A2
:10A668000A0F1406180606061E242A0000205DF8A4
:10A67800044B70475DF8044B483002F065BC5DF848
:10A68800044B2C3003F062B95DF8044B02F0AABE0B
:10A698005DF8044B00F5CC7003F056BB5DF8044B35
:10A6A80000F59870FDF7D4BE5DF8044B00F5E8702E
:10A6B80002F0A4BF5DF8044B00F5F47001F084BD0E
:10A6C80030B400F624042568D0F8744800F5ED602D
:10A6D800C4F3C0540D60D0E90001C2E900011C7048
:10A6E80030BC7047F0B4104C0139645C04F20925A1
:10A6F80000EB85052D681560012504F1ED0200EBDE
:10A70800C202D2E90067C3E90067044494F87728D5
:10A71800049B05FA01F11A70D0F88C38F0BC23EAD2
:10A728000103C0F88C387047DC0003002DE9F04FB6
:10A73800384E83B0A6F124030021844640F21777EF
:10A748004FF6FF7E344CDFF8D8A0009304E00131C7
:10A758000B2906F104065AD047FA01F3DB07F6D5B0
:10A76800009B13F801800CEB4808B8F89298F14563
:10A77800EDD0002301201D46019600FA03F23A426B
:10A7880010D0264E36F911B01BEA020F0AD0009AF3
:10A79800D25C0CEB4202B2F89228724502D0954284
:10A7A80038BF154601330B2BE7D100234FF0010BBF
:10A7B800019E0BFA03F222420DD0306802420AD001
:10A7C80013F80A200CEB4202B2F8A028724502D016
:10A7D800954238BF15460133182BEAD1002DB6D063
:10A7E800B9FBF5F205FB12991FFA89F392B23BB156
:10A7F80005F0010000EB5505AB42A4BF013292B24F
:10A8080001310B29A8F8D62806F10406A4D103B013
:10A81800BDE8F08FFCFF02000F20E000E4FF02001B
:10A828002800030030B44FF6FF720125002400F61B
:10A83800940300F6A201A3F84450A3F8524023F869
:10A84800022B9942F7D14FF6FF71A0F8A228A0F881
:10A85800A428A0F8A628A0F8A828A0F8AA28A0F854
:10A86800AC28A0F8AE28A0F8B02800F50B6300F6D5
:10A87800D60223F8021F9342FBD130BC704700BFB9
:10A8880010B44C1E11461A460A2C07D8DFE804F00B
:10A898000B101506190606061F252B006FF063001E
:10A8A8005DF8044B70475DF8044B483002F078BC03
:10A8B8005DF8044B2C3003F0DDB85DF8044B02F072
:10A8C800B9BD5DF8044B00F5CC7003F0E1BA5DF852
:10A8D800044B00F59870FDF7E3BD5DF8044B00F5F7
:10A8E800E87002F0B3BE5DF8044B00F5F47001F0B7
:10A8F800C9BC00BF2DE970031D461446144B01392D
:10A908005B5C9DF8146000EBC30202F5E562D2E9D6
:10A918000089A94508BFA04503F1FF3312D00126DD
:10A9280003F2022300EB830383ED000AC2E900452A
:10A93800D0F8743806FA01F10B43C0F87438BDE852
:10A9480070037047002EEAD1BDE87003704700BF5E
:10A95800280003004B1EDAB20A2A00D97047184AA9
:10A96800114411F8012C00EB4202B2F89218092B9D
:10A97800F4D801A252F823F0B1A90000B7A9000049
:10A98800BDA9000065A90000C1A9000065A90000D3
:10A9980065A9000065A9000065A90000A9A9000033
:10A9A80000F5E87002F06EBE483002F077BB2C303C
:10A9B80003F02AB802F05ABD00F5CC7003F02ABAA9
:10A9C800D8FF0200F0B50023012640F217751E4C8F
:10A9D8000139645CDFF878C000EB4404DFF874E008
:10A9E800A4F8B02806FA03F42C420DD03CF91170F3
:10A9F800274209D01EF8034000EB4404B4F89278CB
:10AA0800974288BFA4F8922801330B2BEAD1002380
:10AA180001260E4DDFF840C0DFF840E006FA03F4E7
:10AA28002C420DD05CF821703C4209D01EF803403E
:10AA380000EB4404B4F8A078974288BFA4F8A02893
:10AA48000133182BEAD1F0BDDC0003000F20E00031
:10AA5800A8000300D8FF02004000030028000300FC
:10AA680030B400F614042568D0F8744800F5E9609D
:10AA7800C4F3C0040D60D0E90001C2E900011C70F4
:10AA880030BC70474B1E0A2B10D8124A114411F8DB
:10AA9800012C00EB4202B2F89218092B09D8DFE822
:10AAA80003F0090C0F081108080808154FF6FF7184
:10AAB800F3E77047483002F0F1BA2C3002F0A4BF37
:10AAC80002F0D4BC00F5CC7003F0A4B900F5E8702E
:10AAD80002F0D8BDD8FF020030B400F61C04256887
:10AAE800D0F8744800F5EB60C4F340540D60D0E929
:10AAF8000001C2E900011C7030BC7047F0B4174671
:10AB08000A6800F10B050E4684B0511E01AB0844DB
:10AB1800154410F8014FA84203F8014BF9D101ABD5
:10AB280007CB38607960BA6033680C33336004B09F
:10AB3800F0BC7047F0B51D68844605F10C009042E2
:10AB480085B003D901321A6005B0F0BD0F46DCF8B4
:10AB58000000DCF80410DCF808200DF1040E76463D
:10AB68000024AEE8070000E01D683A1916F8010B4A
:10AB780001340C2C5055F7D11A680C321A6005B004
:10AB8800F0BD00BF70B40E46096883B00DF1FF3305
:10AB980008440DF1070510F8014B03F8014FAB42CB
:10ABA800F9D16B4603CB10605160336808333360CA
:10ABB80003B070BC704700BFF0B41C68064604F1CF
:10ABC8000800904284B004D901321A6004B0F0BC85
:10ABD8007047EC46674630680D46716804AE03C797
:10ABE80006E9030000220DF1070100E01C68A8181F
:10ABF80011F8016F0132082A0655F7D11A68083290
:10AC08001A6004B0F0BC704710B40B6883B0C21867
:10AC18005478C25C8DF805408DF80420BDF8040016
:10AC280002330B6003B05DF8044B704730B41C6806
:10AC3800A51C954203D930BC01321A6070470855EB
:10AC48001A68C0F30720114448701A6830BC0232F1
:10AC58001A60704710B40B6883B0C4186478C35C7A
:10AC68008DF805408DF80430BDF8043013800B686A
:10AC780002330B6003B05DF8044B704730B41C68B6
:10AC880082B0A51C954204D901321A6002B030BCCA
:10AC98007047427805788DF805208DF80450BDF886
:10ACA80004200A551868C2F3072201444A701A683A
:10ACB80002321A6002B030BC704700BF30B40B6873
:10ACC80082B0C218C55C54789078D2788DF8045058
:10ACD8008DF805408DF806008DF807209DED010AD6
:10ACE80004330B6002B030BC704700BF30B4146846
:10ACF800251D8D4203D930BC01311160704710EE1B
:10AD0800103A03551168C3F3072401444C701168C5
:10AD1800C3F3074401448C701168C3F30763084404
:10AD2800C370136830BC0433136070470B68C05C91
:10AD380001330B60704700BF30B41C68651C954236
:10AD48009CBF08551A6830BC01321A60704700BFB2
:10AD580070B40D460E6885B00DF1070330440DF14F
:10AD68000F0410F8012B03F8012FA342F9D104AB0B
:10AD780013E903006B4683E803000836DDE90001A8
:10AD88002E6005B070BC704770B485B0089DCDE9E1
:10AD980000012C6804F10801994204D901332B60A1
:10ADA80005B070BC704704AEDDE90001002306E978
:10ADB80003000DF1070100E02C68D01811F8016FAD
:10ADC8000133082B0655F7D12B6808332B6005B0E3
:10ADD80070BC7047F0B48AB06B460E4609680AAD7D
:10ADE8000139084410F8014F03F8014BAB42F9D17F
:10ADF8006F4614460DF1200C3D460FCD6545206089
:10AE08006160A260E36007F1100704F11004F3D158
:10AE180003CF206061603368283333600AB0F0BC28
:10AE2800704700BF30B41C68651C95429CBF08552C
:10AE38001A6830BC01321A60704700BFF0B486B09F
:10AE48000F466B4616460A6806AD013A104410F8DC
:10AE5800014F03F8014BAB42F9D16C460FCC30607F
:10AE68007160B260F36003CC306171613B68183384
:10AE78003B6006B0F0BC70472DE9F0431C681E46E5
:10AE880004F1280393428BB004D9013232600BB02D
:10AE9800BDE8F0836D460F468446A84600F12009B8
:10AEA800C646DCF80000DCF80410DCF80820DCF802
:10AEB8000C300CF1100CCC45AEE80F0008F110086E
:10AEC800EED1DCF80410DCF80000C5F10103A8E8B5
:10AED80003000DF1FF320DF1270100E034689818E6
:10AEE80012F8015F20448A423D54F7D13368283371
:10AEF80033600BB0BDE8F083F0B504460F4610464A
:10AF08000A68BBB0013A01AB3AAE144414F8015FC9
:10AF180003F8015BB342F9D1E42201A924F0C9FB8B
:10AF28003B68E4333B603BB0F0BD00BFF0B51C6844
:10AF38001E46034604F11000904289B003D901323D
:10AF4800326009B0F0BDEE46F4469A6818680F46BC
:10AF58005968DB6804ADACE80F0085E80F00C5F15F
:10AF680001030DF10F020DF11F0100E0346898187C
:10AF780012F8015F20448A423D54F7D133681033F8
:10AF8800336009B0F0BD00BFF0B48AB06B460E461E
:10AF980009680DF126050139084410F8014F03F836
:10AFA800014BAB42F9D16F4614460DF1200C3D46DA
:10AFB8000FCD654520606160A260E36007F110076E
:10AFC80004F11004F3D1BB883868A380206033688B
:10AFD800263333600AB0F0BC704700BF30B41C6839
:10AFE80082B0251D954204D901321A6002B030BCE6
:10AFF800704742880588ADF80620ADF80450019ADC
:10B008000A551868C2F30724084444701868C2F344
:10B018000744084484701868C2F307620144CA7080
:10B028001A6804321A6002B030BC7047F0B40F4698
:10B0380016460A6886B0013A01AB06AD104410F80E
:10B04800014F03F8014BAB42F9D101AC0FCC306092
:10B05800206871603061B260F3603B6814333B6014
:10B0680006B0F0BC704700BF2DE9F0431C681E46CF
:10B0780004F1140393428BB004D9013232600BB04F
:10B08800BDE8F083E8460546C146AA68EB68006853
:10B098000F4669680DF1140EA8E80F002869CEF173
:10B0A800010C0546C8F80000B9E80F00AEE80F002B
:10B0B8000DF11302CEF800500DF1270300E03468BB
:10B0C8000CEB020012F8015F20449A423D54F6D17D
:10B0D8003368143333600BB0BDE8F083F0B484B048
:10B0E8000F466B4616460A6804AD013A104410F83C
:10B0F800014F03F8014BAB42F9D16C460FCC3060DD
:10B108007160B260F3603B6810333B6004B0F0BC20
:10B11800704700BF30B41C68651C95429CBF085539
:10B128001A6830BC01321A60704700BF30B40C682E
:10B1380082B00319055D5C789878DB788DF8045047
:10B148008DF805408DF806008DF80730019B1360D7
:10B158000B6804330B6002B030BC704770B41C68D5
:10B16800064604F10800904283B004D901321A60FF
:10B1780003B070BC704730680D4671686E46002297
:10B1880003C60DF1FF3100E01C68A81811F8016F23
:10B198000132082A0655F7D11A6808321A6003B036
:10B1A80070BC7047F0B40F4616460A6886B0013A7C
:10B1B80001AB06AD104410F8014F03F8014BAB4248
:10B1C800F9D101AC0FCC3060206871603061B26099
:10B1D800F3603B6814333B6006B0F0BC704700BFB7
:10B1E80030B41C68E51C954203D930BC01321A60A2
:10B1F80070470278457880780A551A680A4455706D
:10B208001A68114488701A6830BC03321A60704793
:10B218000B68C05601330B60704700BFF0B41C6860
:10B228001E46034604F11000904284B004D901324E
:10B23800326004B0F0BC70476D469A6818680F46D3
:10B248005968DB68C5F1010C0FC50DF1FF320DF12E
:10B258000F0300E034680CEB020012F8015F204491
:10B268009A423D54F6D133681033336004B0F0BCD1
:10B27800704700BF10B40C6883B00319045D587898
:10B288008DF804408DF805009878BDF8043090706A
:10B2980013800B6803330B6003B05DF8044B7047F1
:10B2A800F0B51E461B68ADF5037D03F502739342A6
:10B2B80004D9013232600DF5037DF0BD6C464FF4C0
:10B2C80002720F4601460F4824F0F3F94FF4027258
:10B2D8000C49204624F0EDF9C4F101030DF1FF32C9
:10B2E8000DF207213568981812F8014F28448A4250
:10B2F8003C54F7D1336803F5027333600DF5037DD1
:10B30800F0BD00BFA8D70020F0B50446ADF5037D19
:10B318000F466B4610460A6882AE013A144414F888
:10B32800015F03F8015BB342F9D169464FF4027239
:10B3380024F0BFF93B6803F502733B600DF5037D0C
:10B34800F0BD00BFF0B51E461B68E5B003F5C87335
:10B35800934203D90132326065B0F0BD6C464FF4B8
:10B36800C8720F4601460E4824F0A3F94FF4C8727C
:10B378000B49204624F09DF9C4F101030DF1FF3279
:10B388000DF28F113568981812F8014F28448A4237
:10B398003C54F7D1336803F5C873336065B0F0BD2A
:10B3A800B0D90020F0B50446E5B00F466B4610460C
:10B3B8000A6864AE013A144414F8015F03F8015BAB
:10B3C800B342F9D169464FF4C87224F072F93B6868
:10B3D80003F5C8733B6065B0F0BD00BFF0B51C68ED
:10B3E8001E4604F1A0039342D1B003D90132326062
:10B3F80051B0F0BDA0220F460DEB0205014668468C
:10B4080024F057F96946A022284624F052F9C5F1DC
:10B4180001030DF19F020DF23F1100E03468981806
:10B4280012F8015F20448A423D54F7D13368A033B3
:10B43800336051B0F0BD00BFF0B50446A9B00F4667
:10B448006B4610460A6828AE013A144414F8015FA6
:10B4580003F8015BB342F9D16946A02224F029F927
:10B468003B68A0333B6029B0F0BD00BF30B41C6816
:10B4780082B0E51C954204D901321A6002B030BC92
:10B48800704702888078ADF804209DF804209DF864
:10B4980005500A551A680A4455701A68114488708C
:10B4A8001A6803321A6002B030BC7047F0B40E4616
:10B4B80009688EB0013901AB0EAD084410F8014F90
:10B4C80003F8014BAB42F9D1154601AF0DF1340C2D
:10B4D8003C460FCC644528606960AA60EB6007F1C0
:10B4E800100705F11005F3D1386828603368343344
:10B4F80033600EB0F0BC70472DE9F0431C681E465F
:10B5080004F1340393428FB004D9013232600FB092
:10B51800BDE8F08301AD0F468446A84600F1300926
:10B52800C646DCF80000DCF80410DCF80820DCF87B
:10B538000C300CF1100CCC45AEE80F0008F11008E7
:10B54800EED1DCF80000C5F10103C8F800000DF1E8
:10B5580003020DF1370100E03468981812F8015F12
:10B5680020448A423D54F7D13368343333600FB0F6
:10B57800BDE8F0832DE9F0431D681E4605F1180368
:10B5880093428DB004D9013232600DB0BDE8F0832A
:10B59800EE460446F146A268E36800680F46616813
:10B5A8000DF11808AEE80F0020696169C8F1010CB7
:10B5B800AEE80300B9E80F00A8E80F0099E8030017
:10B5C8000DF1170488E803000DF12F0300E035683A
:10B5D8000CEB040214F8010F2A449C42B854F6D12B
:10B5E8003368183333600DB0BDE8F083F0B51C68DC
:10B5F8001E4604F1E4039342F3B003D901323260EA
:10B6080073B0F0BDE4220F460DEB02050146684613
:10B6180024F04FF86946E422284624F04AF8C5F198
:10B6280001030DF1E3020DF2C71100E03468981828
:10B6380012F8015F20448A423D54F7D13368E4335D
:10B64800336073B0F0BD00BF2DE9F0431C681E469F
:10B6580004F1260393428BB004D9013232600BB057
:10B66800BDE8F0836D460F468446A84600F12009E0
:10B67800C646DCF80000DCF80410DCF80820DCF82A
:10B688000C300CF1100CCC45AEE80F0008F1100896
:10B69800EED1BCF80420DCF80000C5F10103A8F8DD
:10B6A8000420C8F800000DF1FF320DF1250100E07B
:10B6B8003468981812F8015F20448A423D54F7D143
:10B6C8003368263333600BB0BDE8F0832DE9F043CF
:10B6D8001C681E4604F1140393428BB004D901324E
:10B6E80032600BB0BDE8F083E8460546C146AA685B
:10B6F800EB6800680F4669680DF1140EA8E80F00A2
:10B708002869CEF1010C0546C8F80000B9E80F0019
:10B71800AEE80F000DF11302CEF800500DF127032B
:10B7280000E034680CEB020012F8015F20449A42F2
:10B738003D54F6D13368143333600BB0BDE8F08361
:10B74800DFED427A91ED000A38B520EE270A2DED9B
:10B75800028B0D4604461EF0F9F860EE008A28EECA
:10B76800A80A30EE280AB5EE400AF1EE10FAB1EE5A
:10B77800C08A62D438EE680A30EE000A84ED000A06
:10B78800F7EE007A95ED007AB4EE677AF1EE10FAEA
:10B7980007FE800A84ED000ADFED2C7A95ED010A98
:10B7A80020EE270A1EF0D2F860EE008A28EEA80ADA
:10B7B80030EE280AB5EE400AF1EE10FAB1EEC08A72
:10B7C80041D438EE680A30EE000A84ED010AF7EE3B
:10B7D800007A95ED017AB4EE677AF1EE10FA07FE79
:10B7E800800A84ED010ADFED197A95ED020A20EE50
:10B7F800270A1EF0ABF860EE008A28EEA80A30EEA1
:10B80800280AB5EE400AF1EE10FAB1EEC08A17D454
:10B8180038EE680ABDEC028B30EE000A84ED020AAD
:10B82800F7EE007A95ED027AB4EE677AF1EE10FA47
:10B8380007FE800A84ED020A38BD23F029FF99E744
:10B8480023F026FFE4E723F023FFBAE7DB0FC93F25
:10B858004FF07C51002210B403240160047641604B
:10B868005DF8044B8160C26002614261704700BFAD
:10B8780010B401244FF07C510022047201605DF87D
:10B88800044B4260704700BF2DE9F0432DED048B57
:10B898008BB004460D46DDE91601164603F068FC38
:10B8A800204490F83930012B11D0022B4CD0002BBA
:10B8B80037D00FCD189C0FC40FCD0FC495E80300E7
:10B8C80084E803000BB0BDEC048BBDE8F0832F4681
:10B8D800189C0FCF0FC40FCF0FC497E8030084E85C
:10B8E8000300002EEED0B8EE009AB7EE008AF0EE14
:10B8F800008A189C05EB8606B5EC010A20EE090AB9
:10B908001DF0FEFE30EE080AC8EE807A77EEC87A9F
:10B91800AE42E4EC017AEFD10BB0BDEC048BBDE88C
:10B92800F08329469FED2C7A189B05F12802F1EC4B
:10B93800017AC7FE277A8A42E3EC017AF7D10BB085
:10B94800BDEC048BBDE8F0836C460FCD0FC40FCD62
:10B958009DED000A0DF10408B0EE408A47460FC479
:10B9680095E8030084E803000DF12809F7EC017A53
:10B97800F4EE487AF1EE10FA37FE888A4F45F5D191
:10B988007EB144460DEB860601E0B4EC010A30EEC8
:10B99800480A1DF0B5FEA64204ED010AF5D19DED59
:10B9A800000A4346F0EE407AB3EC017A4B4577EE55
:10B9B800877AF9D1189B03F1280201E0B8EC010A53
:10B9C80080EE277AA3EC017A9342F7D10BB0BDEC55
:10B9D800048BBDE8F08300BF00000000F0B52DED3A
:10B9E800048B90F83C000C46012816461D4685B08D
:10B9F8000BD002284BD060B30FCC28606960AA60D6
:10BA0800EB6005B0BDEC048BF0BD0F460FCF28608E
:10BA18006960AA60EB60002EF3D0B8EE009AB7EE2A
:10BA2800008AF0EE008A04EB8606B4EC010A20EEE8
:10BA3800090A1DF065FE30EE080AC8EE807A77EE36
:10BA4800C87AA642E5EC017AEFD105B0BDEC048BCB
:10BA5800F0BD91ED007ADFED377A87FE877A83EDC6
:10BA6800007A91ED017A87FE877A83ED017A91ED6C
:10BA7800027A87FE877A83ED027A91ED037AC7FE10
:10BA8800877AC3ED037A05B0BDEC048BF0BD6F4631
:10BA98000FC987E80F009DED000A9DED016AB4EE1D
:10BAA800C60AF1EE10FADDED026A54BFB0EE408A24
:10BAB800B0EE468AF4EE486AF1EE10FA9DED037A8C
:10BAC80036FE888AB4EE487AF1EE10FA37FE088A14
:10BAD800AEB107EB860601AC01E0B4EC010A30EE2A
:10BAE800480A1DF00DFEB44204ED010AF5D19DEDA2
:10BAF800000A9DED016ADDED026A9DED037A70EEA4
:10BB0800067A77EEA67A77EE877AC6EE275A80EE1F
:10BB1800275A86EEA76AC7EE276A85ED005AC5ED53
:10BB2800015A85ED026AC5ED036A05B0BDEC048BC8
:10BB3800F0BD00BF000000000023022230B40B2536
:10BB480040F20114002180F83C20A0F8443580F828
:10BB580046350570448700F1400300F1680243F858
:10BB6800041B9342FBD1002200F1900143F8042BFF
:10BB78008B42FBD14FF07E51C0F89020C0F8942042
:10BB8800C0F89820C0F89C2000F1A00300F52A72A4
:10BB980043F8041B9342FBD14FF07E5100F58762B6
:10BBA80043F8041B9342FBD14FF07E5100F59B6292
:10BBB80043F8041B9342FBD140F60A2204230021D8
:10BBC800A0F8D82480F8DA3400F2DC4200F5A26349
:10BBD80042F8041B9342FBD14FF07E5100F24452CD
:10BBE80043F8041B9342FBD10022031D00F12C01F2
:10BBF80043F8042B8B42FBD130BC4FF48073C262F4
:10BC080002634263038770472DE9F04786B004ABAF
:10BC180005AE04460078CDE900360DF10F030D4658
:10BC280002F090F99DF90F0008BB4FF0010A04F5E6
:10BC3800A26904F2DC4804F59B675FFA8AF3013BCA
:10BC48000B2B61D8DFE803F059524B443D362F23C4
:10BC58001D29160631462846FFF768F884F8450579
:10BC68000AF1010ABAF10E0FE7D19DF90F0006B0EB
:10BC7800BDE8F08731462846FFF758F884F84405B0
:10BC8800EEE7424631462846FFF710FCE8E73A4619
:10BC980031462846FFF7EEFAE2E74A46314628469B
:10BCA800FFF704FCDCE73146284604F58762FFF716
:10BCB800C3FBD5E73146284604F52A72FFF772FB25
:10BCC800CEE73146284604F1A002FFF71DFBC7E77F
:10BCD8003146284604F19002FFF700FAC0E73146E2
:10BCE800284604F16802FFF775F8B9E73146284697
:10BCF80004F14002FFF76EF8B2E73146284604F136
:10BD08003A02FFF7B7FAABE731462846FFF70EF8D5
:10BD180084F84605A4E700BFF8FE600AFCEEE07A66
:10BD28002DE9F04F15461E460022002717EE903ADF
:10BD38002A606A60AA60EA60377090F83920013397
:10BD48000446B9B0DBB222B1012B7AD039B0BDE8D4
:10BD5800F08F90F838200132D2B24F1CFFB2B2FBFC
:10BD6800F7F007FB1022D2B2934211D00021231D15
:10BD780004F12C0243F8041B9342FBD100234FF437
:10BD88008072E36223636363228739B0BDE8F08F72
:10BD98005A1E04EB82028B4284F8383082ED010A85
:10BDA800D4D12BAF3B46002238A943F8042B994243
:10BDB800FBD1231D9C4605930DF1AC0804F1240921
:10BDC800C646DCF80000DCF80410DCF80820DCF8D3
:10BDD8000C300CF1100CCC45AEE80F0008F110083F
:10BDE800EED1DCF80410DCF80000636BD4F8309076
:10BDF800D4F82CE01EAAA8E803003793CDF8D49015
:10BE0800CDF8D8E004F5A26304F244510FE053EDF5
:10BE18000E6A97ED007A37EE667AC7EE276AC2EDAA
:10BE2800006A994207F1040702F104021ED0F3ECFC
:10BE3800017AF5EE407AF1EE10FAE8D13868106030
:10BE4800EFE790F8462580F839700AB180ED0B1AB3
:10BE580094F844250AB1C4ED0C1A94F845251AB192
:10BE680084ED0D2A012278E7012276E794F8D88438
:10BE780094F8D97494F8DA940DF1280A04F1400C76
:10BE880004F1600BD646DCF80000DCF80410DCF89E
:10BE98000820DCF80C300CF1100CDC45AEE80F0083
:10BEA8000AF1100AEED1DCF80000DCF80410AAE868
:10BEB8000300B8F1000F1AD020460DF1280C04EB4E
:10BEC800880E2BA9BCEC017A03461EAAF2EC017A73
:10BED800D3ED286A67EEA67A914237EE277A03F106
:10BEE8002803F3D1043086450CED017AEAD100220B
:10BEF800664B0DF1500ACDE9002320464246CDF8A5
:10BF080008A00AA9FFF7C0FC002F00F08C8004F1FC
:10BF180088030DF1AC0B04F1680C0493DE46DCF8E1
:10BF28000C30DCF80000DCF80410DCF808200CF118
:10BF3800100CAEE80F00049B0BF1100B9C45EDD1E3
:10BF4800A6465B46DCF80000DCF80410444603C350
:10BF58000AEB88010020F0460DF1AC0C8CB19CED89
:10BF6800007A52467346F2EC017AD3EDAA6A67EE7C
:10BF7800A67A914237EE277A03F12803F3D18CEDA4
:10BF8800007A013087420CF1040C0EF1040EE5D161
:10BF98004FF0804300220AA9CDE9002340463A46E3
:10BFA80002912BA9FFF770FC43460DF1180CE646E9
:10BFB80053F8900F444659689A68DB68AEE80F005A
:10BFC800B9F1000F1ED0E64600200AAB03EB870745
:10BFD80008F58761BEEC017A0A460AAB9046F3EC95
:10BFE800017AD8ED006A67EEA67A9F4237EE277A83
:10BFF80002F11002F2D1013081450EED017A01F112
:10C008000401E7D12B464A4661462046FFF7E6FC85
:10C0180003220021059B327004F12C0243F8041B13
:10C028009A42FBD1AAE623460DF1180CE64653F8CE
:10C03800900F59689A68DB68AEE80F00B9F1000FF5
:10C04800E0D0234604F5876E0AEB88014446604633
:10C05800984694B190ED007A534672469346F3ECB5
:10C06800017ADBED006A67EEA67A994237EE277A05
:10C0780002F11002F2D180ED007A0137B94500F1E2
:10C0880004000EF1040EE4D14446BBE70000F03F83
:10C098002DE9F0470D2482B00646174600780DF1C9
:10C0A80003020D468DF8034001F06EFF9DF80380F2
:10C0B8000190B8F1000F2AD0012406F5A26A06F211
:10C0C800DC49E3B2013B0C2B0FD8DFE803F0655DD8
:10C0D800756D554D453D362F271407003A462946BC
:10C0E80096F8460501ABFEF727FEA04504F10103CB
:10C0F8000CD01C46E5E701AB3A46294696F84505BB
:10C10800FEF71AFEA04504F10103F2D10198C0F32D
:10C11800072328706B7002B0BDE8F0873A462946BD
:10C1280096F8440501ABFEF707FEDEE73A462946D6
:10C13800504601ABFFF7E0F9D7E73A4629464846AB
:10C1480001ABFFF7D9F9D0E73A46294601AB06F526
:10C158009B60FFF78BF9C8E73A46294601AB06F51D
:10C168008760FFF73BF9C0E73A46294601AB06F579
:10C178002A70FFF7E7F8B8E73A46294601AB06F117
:10C18800A000FFF78DF8B0E73A46294601AB06F163
:10C198004000FEF771FEA8E73A46294601AB06F1D2
:10C1A8003A00FFF71DF8A0E73A46294601AB06F129
:10C1B8009000FFF733F898E73A46294601AB06F1B5
:10C1C8006800FEF759FE90E72DE9F043062483B096
:10C1D8000646904600780DF103020D468DF803409F
:10C1E80001F0D2FE9DF80370019027B3012406F1F7
:10C1F8000409E3B2013B052B0BD8DFE803F0231059
:10C20800322A3A034146284696ED0D0A01AAFEF75E
:10C218006DFDA74204F101030CD01C46E9E701AB10
:10C228004246294696F83800FEF786FDA74204F1F3
:10C238000103F2D10198C0F3072328706B7003B093
:10C24800BDE8F08342462946484601ABFEF714FE96
:10C25800DFE74146284696ED0B0A01AAFEF746FDA0
:10C26800D7E74246294696F8390001ABFEF764FD48
:10C27800CFE74146284696ED0C0A01AAFEF736FD9F
:10C28800C7E700BF2DE9F04186B004AB05AF05460E
:10C298000078CDE900370DF10F030E4601F052FE8C
:10C2A8009DF90F00B0B9012405F10408E3B2013B80
:10C2B800042B2DD8DFE803F0261F18110300394698
:10C2C8003046FEF7FBFC85ED0C0A0134072CEDD156
:10C2D8009DF90F0006B0BDE8F08139463046FEF7FB
:10C2E800EDFC85ED0B0AF0E739463046FEF71EFDFA
:10C2F80085F83900E9E739463046FEF717FD85F835
:10C308003800E2E7424639463046FEF763FDDCE78F
:10C3180039463046FEF7D2FC85ED0D0AD5E700BF59
:10C3280070B5D0ED017A2DED028BDFED5A6A0C461F
:10C3380067EEA66A15469DF818609DF81C10002A3D
:10C348006DD100EB8302D2ED038AD4ED004A76EE7C
:10C35800A88A4288B0EE087A07EE902A00EB83029A
:10C36800D2ED065AF4EE475AF8EE677A9FED4A5A2C
:10C37800F1EE10FA87EE856A30EE648A4CD192EDC0
:10C38800017ADFED467A37EE400AB7EE007A80FE92
:10C39800270A37EE407AF6EE087A27EE077A9FEDFD
:10C3A800405A67EE277ADFED3F5A67EE857A77EED7
:10C3B800A57AB5EEC08A66EEA77AF1EE10FA77EEA6
:10C3C800A67A44DD012B06BF00EB860696ED0A7AB5
:10C3D8009FED357A91B3D0ED017ADFED346A67EEDF
:10C3E800A67A87EE870A20EE060AB4EE408AF1EEB6
:10C3F80010FA30FE088A38EE248AB4EEE88AF1EEA4
:10C4080010FA58BFF0EE488A0DB1F1EE688AC4ED13
:10C41800008ABDEC028B70BDDFED257AC9E794ED8B
:10C42800008AF1EE484AC4ED004A00EB8302D2EDDF
:10C43800018AB1EE400A76EEE88A8AE7B4EE678AA6
:10C44800DFED197AF1EE10FA37FE877AC3E731B9D2
:10C45800B0EEC87AB4EEE77AF1EE10FA10DCD2ED5D
:10C46800337AB1EE460A80EE270A1DF049F9F7EE55
:10C47800007A37EEC00AD4ED004A28EE008ABAE7FF
:10C48800012BECD1D0ED346AB0EE087AC6EE877A8B
:10C49800E7E700BFC178C63D0000C84200000000C1
:10C4A800CDCC4C3ECDCCCC3D0000E144CBBECB3E08
:10C4B8009A99993E00EB8101D1ED036AF5EE406A45
:10C4C800F1EE10FA91ED017A03D077EE667A87FEE5
:10C4D800800A77EE607A9FED097A70EEE60AC7FE69
:10C4E800877AC0FE870AC7FEE07A77EEA77AF7EE6A
:10C4F800006A87EE807A87FE660A704700000000AF
:10C5080000EB820393ED067AF0EE087AB4EE677AD0
:10C51800F1EE10FA02F1FF322AD1B7EE007A77EE87
:10C52800600AF6EE087A60EEA00ADFED1F6A60EE98
:10C53800A77A9FED1E7A67EEA67A77EE877AD3ED13
:10C54800036A93ED017A00EE270A77EE667AB4EE75
:10C55800E70AF1EE10FA04DCF5EE406AF1EE10FAA3
:10C5680009D190F8D8301044B7EE000A0376704726
:10C57800DFED0F7AE3E769B90244137EFF2B0FD092
:10C588000133DBB2137690F8D8209A4208D9B0EE7E
:10C59800000A704700231044B0EE000A0376704783
:10C5A800B0EE080A704700BFCDCC4C3ECDCCCC3D98
:10C5B8009A99993E00222DE9F04F4FF07E510127BC
:10C5C800DFED477ADFED470A9FED471AFEEE081ABE
:10C5D8009FED462ADFED462A9FED463ADFED463AC3
:10C5E8009FED464ADFED464A9FED465ADFED465A33
:10C5F8009FED466A4FF00A0B4FF0030AF0EE0C6A03
:10C608009FED437A4FF000094FF002084FF6FF7E86
:10C6180040F2022C3F4C404D404EC0ED0E0A80EDDA
:10C628000F1AC0ED101A80ED112AC0ED152A80ED01
:10C63800253AC0ED263A80ED274AC0ED284A80ED1C
:10C64800295A07708264C26402658265C2654266BF
:10C65800C26602678267C0F88020C0F88420C0F8EC
:10C668008C20016681664167C167C0F88810C0F8F0
:10C678009010C0F8A840C0F8B040C0F8AC50C0ED69
:10C68800345A80ED356AC0ED386A80ED397AC0EDEC
:10C69800327AC0ED337AC0F8B450C0F8B850C0F858
:10C6A800BC40C0F8C050C0F8C4404262C261426099
:10C6B8008260C26002614261026280F83470A0F850
:10C6C800DAB0A0F8DCA0A0F8289080F8D880A0F80C
:10C6D80002E0A0F818C0C6620663BDE8F08F00BF8C
:10C6E80000006145894100BFCDCCCCBEE17A94BE43
:10C6F800CDCCCCBD52499DBC5F29CB3D76E06C3F8B
:10C708009BE67D3FBF0E7C3F00C0A8474031774C79
:10C7180017B7D1380000A041000020420000E144D2
:10C728002DE9F04786B004AB05AE04460078CDE9A4
:10C7380000360DF10F030D4601F004FC9DF90F00C2
:10C7480000BB4FF0010A04F1B80904F1A80804F18C
:10C7580094075FFA8AF3013B0A2B5BD8DFE803F002
:10C76800534C453E373029221B15060042463146B8
:10C778002846FEF7B3FC0AF1010ABAF10D0FE8D119
:10C788009DF90F0006B0BDE8F0873A4631462846C5
:10C79800FEF708FDEFE73146284604F18002FEF770
:10C7A80001FDE8E73146284604F16C02FEF7FAFC81
:10C7B800E1E73146284604F15802FEF7F3FCDAE7D0
:10C7C8003146284604F14802FEF788FCD3E7314693
:10C7D800284604F1E002FEF7D5F9CCE731462846B1
:10C7E80004F1DA02FEF7A2FCC5E73146284604F157
:10C7F8003802FEF773FCBEE73146284604F1C8024A
:10C80800FEF7C0F9B7E73146284604F1D002FEF733
:10C81800B9F9B0E74A4631462846FEF75FFCAAE771
:10C828009FEDDE7ADFEDDE7A2DE9F04720EE877A9C
:10C838002DED0C8B70EEA77ADFEDDA6A90ED019A98
:10C8480088B0B0EE408ADDE91D5687EE270AF0EE83
:10C85800608A29EE269AF0EE419A04468946904667
:10C868001F46B0EE61AA9DF870A01CF049FFDFEDED
:10C87800CE6A9FEDCE6A69EEA66A9FEDCD7AC6EEC6
:10C88800867A38EE877A27EE800ADFEDCA6AC0EE2C
:10C89800077A9FEDC97A27EEA60AB4EEC70AF1EE29
:10C8A80010FA00F30A826388B8EE00BAB3F5967FEF
:10C8B8002246A44600F00C82B3F5E16F00F0328204
:10C8C800642B00F01A82D4ED0ECAD4ED12BAD4ED5E
:10C8D8002AAA94ED2ECA52F8580F05AB51689268EF
:10C8E80007C35CF8640F03ABDCF8041003C39FEDC7
:10C8F800AB0ADFEDAB7A2AEE800A7AEEA77A80EEF1
:10C90800270A1CF0FDFEDFEDA87A9FEDA8DA2CEED1
:10C9180027CADFEDA77A8CEE0D7A7AEEA77A27EE92
:10C92800007ADFEDA46A87EE270A20EE260A1CF0BB
:10C93800B5FFD4ED020AF5EE400AF1EE10FA7FD009
:10C948003BEE407A9DED056A67EE077A9DED060A93
:10C9580078EEEAAA27EE007ACAEE8D6A67EE867A42
:10C968009DED036A77EE877A9DED070A26EE867AB3
:10C97800DDED046A77EE807A37EE267AF7EE086AFC
:10C9880067EE877AB6EE000AC7FEE67AC7FE807AB7
:10C9980068EEABBA9FED857A2BEE2CBA8BEE870A40
:10C9A80030EE0B0A38EE400A30EE600A20EE270A15
:10C9B80030EE200A86ED000AB8F1000F40F004813D
:10C9C800BAF1000F00F0A48094ED027AD4ED037A56
:10C9D800D4ED076AB5EE407AF1EE10FAF5EE407A3A
:10C9E80008BF96ED007AF1EE10FA08BFD6ED007A8E
:10C9F80085ED007A94ED046AB5EE406AF1EE10FA1E
:10CA080008BF37EE496AC5ED046A85ED026AC5EDCF
:10CA1800017A94ED057AB5EE407AF1EE10FA08BF86
:10CA280037EEC97A85ED037A236A6B6194F834305E
:10CA3800012B00F0288108B0BDEC0C8BBDE8F08715
:10CA4800F7EE007AA4E7D4ED027AF5EE407AD4ED59
:10CA5800047AF1EE10FAF5EE407A04BF84ED020A8A
:10CA680096ED000AF1EE10FA0CD1D4ED027A77EEC9
:10CA7800C97AF4EEC07AF1EE10FAC4BF84ED040A64
:10CA880096ED000A02230022CDE900372046012353
:10CA980004F10801FFF744FCD4ED047AF5EE407A7E
:10CAA800F1EE10FA40F08181D4ED037AF5EE407A88
:10CAB800D4ED057AF1EE10FAF5EE407A04BF33684A
:10CAC800E360F1EE10FA0CD1D4ED037A96ED000A8A
:10CAD80077EEC97AB4EEE70AF1EE10FA03D584EDE1
:10CAE800050A96ED000A4FF0020A00225346204636
:10CAF800CDE900A704F10C01FFF712FCD4ED057A8B
:10CB0800F5EE407AF1EE10FA40F05B8196ED000AFE
:10CB180094ED026AB4EEC06AF1EE10FAB0EE467A0D
:10CB280000F28C800123B9F1000F00F09480B8F175
:10CB3800000F00F00C81F0EE400A01212046B0EE13
:10CB4800490AFFF7B7FC0122F0EE400A1946B0EE99
:10CB5800490AFFF7D5FC84ED070AD4ED037AD6ED30
:10CB6800000AF4EEE07AF1EE10FA00F209810221EF
:10CB7800B0EE490A2046FFF79DFCF0EE400A414618
:10CB88000222B0EE490A2046FFF7BAFC94ED027A79
:10CB9800D4ED037AD4ED076A72E000BFC3F58C4187
:10CBA800B81E7343C178C63D8195C3400000C84292
:10CBB8003393884333B358430AD7233C0000AA422F
:10CBC800000020C200000000BAF1000F7FF4FCAEA4
:10CBD8005FED067AF4EEE78AF1EE10FA98D85FED89
:10CBE800087AF4EEE78AF1EE10FA91DBF4EEC79AD0
:10CBF800F1EE10FA8CD85FED0D7AF4EEE79AF1EECB
:10CC080010FA85DBB4EE67AAF1EE10FA40F0E58081
:10CC180094ED097AB4EE677AF1EE10FA3FF413AFA7
:10CC2800238D06EE903AF8EE666A37EE667AC7FE0E
:10CC3800877AC4ED097A96ED000A69E7D4ED047A9B
:10CC4800F4EEC07AF1EE10FAACBF01230023B9F17B
:10CC5800000F7FF46CAF5FED256AC4ED076A94F8A6
:10CC6800D830D4ED037A237696ED005AB4EEE75A1D
:10CC7800F1EE10FAF0EE675A7BDB1FED2E0A6376B1
:10CC880084ED080AA6E6F0EE087AF4EE676AF1EE9B
:10CC980010FA0AD14FB10023D4F8C810D4F8CC2028
:10CCA800E162226384F83430C5E65B4BE3622363B8
:10CCB80008B0BDEC0C8BBDE8F0871CF0EFFD638875
:10CCC800B0EE40BAB3F5967F2246A4467FF4F4ADA1
:10CCD80052F8800F05AB51689268D4ED10CA07C3AB
:10CCE8005CF88C0F03ABDCF80410D4ED14BAD4ED67
:10CCF8002CAA94ED30CA03C3F9E552F8940F05AB9A
:10CD080051689268D4ED11CA07C35CF8A00F03AB51
:10CD1800DCF80410D4ED15BAD4ED2DAA94ED31CA7F
:10CD280003C3E4E552F86C0F05AB51689268D4ED83
:10CD38000FCA07C35CF8780F03ABDCF80410D4ED16
:10CD480013BAD4ED2BAA94ED2FCA03C3CFE5DFEDB8
:10CD5800336AC4ED076A94F8D830D4ED037A2376A1
:10CD680096ED005AF4EEC57AF1EE10FAF0EE675A35
:10CD780083D9B0EE467AF0EE657AD4ED076A7CE79F
:10CD8800D4ED057AF4EEE07AF1EE10FA4FF00201F4
:10CD9800B0EE490A2046ACBF4FF001084FF000083A
:10CDA800FFF788FBF0EE400AE9E60123CDE90037FA
:10CDB8001A4696ED000A204604F11001FFF7B0FA72
:10CDC80072E6012201970092534696ED000A20462A
:10CDD80004F11401FFF7A4FA98E6FDEECA7A17EEFB
:10CDE800903A04EB4302B2F8D820D4ED098A08EE51
:10CDF800102AB8EE488A04EB830393ED370A1CF037
:10CE08007FFC38EEC88AC8EE007A78EEE78AC4ED6F
:10CE1800098A96ED000A7BE60000E1440000000064
:10CE28002DE9F0470C2482B00646174600780DF12C
:10CE380003020D468DF8034001F0A6F89DF8038023
:10CE48000190B8F1000F27D0012406F1B80A06F1C5
:10CE5800A809E3B2013B0B2B0DD8DFE803F05C54C3
:10CE68006C644C443C342C2412063A4629465046FD
:10CE780001ABFEF75BF8A04504F101030BD01C469B
:10CE8800E7E701AB3A4629464846FEF74FF8A04582
:10CE980004F10103F3D10198C0F3072328706B70E4
:10CEA80002B0BDE8F0873A46294601AB06F1940086
:10CEB800FEF7DAF8DFE73A46294601AB06F18000CB
:10CEC800FEF7D2F8D7E73A46294601AB06F16C00DF
:10CED800FEF7CAF8CFE73A46294601AB06F15800F3
:10CEE800FEF7C2F8C7E73A46294601AB06F1480003
:10CEF800FEF71CF8BFE73A46294601AB06F1E00009
:10CF0800FDF75AFEB7E73A46294601AB06F1C800D5
:10CF1800FDF752FEAFE73A46294601AB06F1D000CD
:10CF2800FDF74AFEA7E73A46294601AB06F1DA00C3
:10CF3800FEF754F89FE73A46294601AB06F1380058
:10CF4800FDF7F4FF97E700BF2DE9F0470B2482B007
:10CF58000646174600780DF103020D468DF803408A
:10CF680001F012F89DF803800190B8F1000F28D065
:10CF7800012406F12C0A06F11C09E3B2013B0A2B35
:10CF88000ED8DFE803F0534B635B443C2D25341384
:10CF980006003A46294696F8340001ABFDF7CCFE68
:10CFA800A04504F101030BD01C46E6E701AB3A4665
:10CFB80029465046FDF700FEA04504F10103F3D1D0
:10CFC8000198C0F3072328706B7002B0BDE8F087A2
:10CFD8003946284696ED010A01AAFDF787FEDFE7E4
:10CFE8003A462946308D01ABFDF720FED8E73A4690
:10CFF800294696F8D80001ABFDF79EFED0E73946E2
:10D00800284696ED090A01AAFDF770FEC8E73A46D8
:10D018002946484601ABFDF7CFFDC1E73A46294608
:10D0280001AB06F11000FDF7C7FDB9E73A462946FE
:10D0380001AB06F10800FDF7BFFDB1E73A46294606
:10D0480001AB06F11800FDF719FEA9E73A46294693
:10D05800708801ABFDF7EAFDA2E700BF002370B4BA
:10D0680040F20221002602254FF6FF744362C36195
:10D0780043608360C3600361436103620123064A1E
:10D08800068580F8D8504480C2620263018380F824
:10D09800343070BC704700BF0000E1444FF6FF73A6
:10D0A800994232D030B52DED028B43880C468B4225
:10D0B800054683B025D0B1F5967F418026D0B1F5DD
:10D0C800E16F4ED064294CD064219FED300A304B7B
:10D0D800A3FB04235A0901FB124292B25B09312ACD
:10D0E80088BF01332B851CF0D9FB9FED2A7AB0EE5F
:10D0F800C00AC0EE077AC5ED017A5CB9FF2385F84E
:10D10800D83003B0BDEC028B30BD70470322224BF0
:10D118000285436047F23052B2FBF4F304FB13225A
:10D1280092B29BB2AAB907EE903AB8EE670AB5EE8A
:10D13800400AF1EE10FAB1EEC08A19D438EE088A26
:10D14800BBFE488AFCEEC87ACDED017A9DF8043022
:10D15800D5E704F0010101EB5404A242A8BF013352
:10D16800E1E70B4B9FED0D0AA3FB04235B09B9E72D
:10D1780022F08EFA38EE088AFBFE487AFCEEE77A4F
:10D18800CDED017A9DF80430B9E700BF304C463F39
:10D198001F85EB51502C633E16A85F3F9A99193FA3
:10D1A8002DE9F04786B004AB05AE04460078CDE91A
:10D1B80000360DF10F030D4600F0C4FE9DF90F0077
:10D1C800F8B94FF0010A04F12C0904F11C0804F124
:10D1D80018075FFA8AF3013B092B50D8DFE803F000
:10D1E80048413B352F28221B14054A46314628461C
:10D1F800FDF7C8FC0AF1010ABAF10C0FE9D19DF953
:10D208000F0006B0BDE8F08731462846FDF78EFDD1
:10D2180084F8D800EEE731462846FDF74FFD84ED47
:10D22800010AE7E731462846FDF7EEFC2085E1E7ED
:10D2380031462846FDF742FD84ED090ADAE7424601
:10D2480031462846FDF79EFCD4E73A463146284643
:10D25800FDF700FDCEE731462846FDF7D5FC608096
:10D26800C8E73146284604F11002FDF78BFCC1E7F8
:10D278003146284604F10802FDF784FCBAE7314636
:10D288002846FDF753FD84F83400B3E7032310B5AF
:10D29800044600F8043BFEF7DBFA2046FCF7E8FCFE
:10D2A800204610BD70B586B004AB05AE04460078C4
:10D2B800CDE900360DF10F030D4600F043FE9DF950
:10D2C8000F0008B106B070BD2846314604F12002AF
:10D2D800FDF714FC9DF90F0006B070BDF2EE047A5C
:10D2E800F8B5B4EE670A2DED048BD0ED049AF1EE93
:10D2F80010FAB0EE409AF5EE409A98BFB0EE679AF1
:10D30800F1EE10FA04460F4616461D46F0EE608A06
:10D31800B0EE418A30D0B0EE490A94ED019A1CF083
:10D32800BDFAD4ED047A70EE677A67EE897A37EE43
:10D33800A90A87ED000AD4ED057AD4ED020A78EE41
:10D34800E78A68EEA08A78EEA78AC6ED008AD4ED4F
:10D35800067A94ED031A38EE678A28EE018A38EEC9
:10D36800278A85ED008ABDEC048B3B68236133680E
:10D3780063612B68A361F8BDB0EE490A1CF08EFA10
:10D38800C4ED058AF0EE409A84ED068A84ED040A1D
:10D39800C1E700BF2DE9F041012482B0064690465E
:10D3A80000780DF103020F468DF8034000F0ECFD04
:10D3B8009DF80350019035B10024203654B1013452
:10D3C800A542FBD10198C0F3072338707B7002B0E7
:10D3D800BDE8F08142463946304601ABFDF7AAFB6D
:10D3E800EDE700BF2DE9F041012482B006469046E2
:10D3F80000780DF103020F468DF8034000F0C4FDDC
:10D408009DF80350019035B10024103654B1013411
:10D41800A542FBD10198C0F3072338707B7002B096
:10D42800BDE8F08142463946304601ABFDF782FB44
:10D43800EDE700BF70B586B004AB05AE04460078D2
:10D44800CDE900360DF10F030D4600F07BFD9DF987
:10D458000F0008B106B070BD2846314604F110022D
:10D46800FDF74CFB9DF90F0006B070BD07EE901A52
:10D47800DFED1C6AF8EE677A86EEA77AF6EE007A98
:10D48800D0ED086A27EE277AD0ED095AF7EE007A30
:10D4980086EE876A90ED0A5AC5EE876AB4EEE76AA7
:10D4A800C5EE075AF1EE10FAF4EEE76A37FE866A1F
:10D4B800F1EE10FAF4EEE75A77FEA66AF1EE10FAEA
:10D4C80000B585B077FEA57A043001A98DED016A13
:10D4D800CDED026ACDED037AFEF732F905B05DF8BD
:10D4E80004FB00BF0000C84210B5044600F8041B46
:10D4F800FEF7BEF92046FCF7CFFB204610BD00BF63
:10D5080070B586B004AB05AE04460078CDE90036A8
:10D518000DF10F030D4600F015FD9DF90F0008B140
:10D5280006B070BD2846314604F11002FDF72AFB0B
:10D538009DF90F0006B070BDB5EEC01AF1EE10FAF5
:10D5480008B52BD9DFED177AB4EE671AF1EE10FAA9
:10D5580037FE811A90ED027AB5EE407AF1EE10FAB4
:10D5680008BFB0EE407AD0ED016A30EE470AD0ED40
:10D57800047A20EE260A61EE277AD0ED056A30EEAD
:10D58800070A77EEA67A80ED020A37EE811A01F0D3
:10D598000DF9DFED047A80FE670A08BD9FED021AD7
:10D5A800D8E700BF0000C84217B7D1382DE9F041CD
:10D5B800012482B00646904600780DF103020F461A
:10D5C8008DF8034000F0E0FC9DF80350019035B160
:10D5D8000024103654B10134A542FBD10198C0F3A0
:10D5E800072338707B7002B0BDE8F08142463946A7
:10D5F800304601ABFDF7B2FDEDE700BF2DE9F04184
:10D60800012482B00746904600780DF103020E46C9
:10D618008DF8034000F0B8FC9DF8035001902DB13F
:10D62800002454B10134A542FBD10198C0F307236B
:10D638003070737002B0BDE8F0814146304697ED16
:10D64800020A01AAFDF752FBECE700BF70B586B0ED
:10D6580004AB05AE04460078CDE900360DF10F03A2
:10D668000D4600F06FFC9DF90F0008B106B070BDC3
:10D6780028463146FDF722FB9DF90F0084ED020A8A
:10D6880006B070BD07EE901ADFED216AB8EE677A32
:10D69800B6EE006AC6EE877ADFED1E6A67EE867A16
:10D6A80010B5B7EE007A2DED048BC6EEA78A9FED74
:10D6B8001A0AC8FEC78A28EE800A04461CF046F9F2
:10D6C80020EE008A28EE089A39EE089AB5EE409ABC
:10D6D800F1EE10FA16D4F7EE007AF4EE678AF1EE5E
:10D6E80010FA0AD0B1EEC90A30EE488A38EE088A34
:10D6F80084ED018ABDEC048B10BDC4ED017ABDEC4C
:10D70800048B10BDB0EE490A21F0C2FFE3E700BF69
:10D718000000C84299D4503CDB0FC93F002230B406
:10D728000225054C054905704460416181618260AC
:10D73800C260026130BC7047EC518542000048422B
:10D7480070B586B004AB05AE04460078CDE9003666
:10D758000DF10F030D4600F0F5FB9DF90F0008B120
:10D7680006B070BD28463146FDF7A8FA9DF90F00AE
:10D7780084ED010A06B070BDD1ED007AD1ED026AE0
:10D7880037EEC07A77EEE67AC7EE276ADFED527A8F
:10D7980090ED026A66EEA76AB7EE005ADFED4F7A9F
:10D7A80027EE066A76EEA76A9FED4D7AF4EEC50A73
:10D7B800F8B536EE276A2DED028BC7FE266ADFED37
:10D7C800495AF1EE10FA0C46DDE90816B0EE408A27
:10D7D800C7FE067AC5FEE66A0A9D5AD4C0ED056AF8
:10D7E800C0ED067AC2ED006A27695760C3ED007A7A
:10D7F80022695A6090ED017AB4EEE77AF1EE10FAF8
:10D8080042DBB1EE047ADFED386A27EE877A37EE2D
:10D81800267ADFED366A86FE877A81ED007A2369FB
:10D82800B2EE040A4B6090ED037AD0ED040A67EE7D
:10D83800877A77EEA00A02F0FFFE9FED2D7ADFEDE2
:10D848002D7A87FE000AC7FEC07AC6ED007A2369E2
:10D85800DFED296A7360D4ED017A94ED037A37EE2F
:10D86800C88A37EEC77AC8EE077ABDEC028B67EE36
:10D87800A67A9FED1B7AC7FEE67AC7FE277AC5ED22
:10D88800007A63696B60F8BDB2EE047A27EE877A96
:10D89800BFE790ED057AB4EEE67AF1EE10FA60EEA5
:10D8A800A00A07D535EE605A66EEA06A25EE075A3B
:10D8B80075EE266A90ED066AB4EEE76AF1EE10FAA4
:10D8C80090D5B7EE007A37EE607A67EEA07A67EE09
:10D8D800060A70EEA77A85E7000016430000484262
:10D8E800000000000000FA4300007A430000C8432B
:10D8F800CDCCCC3D00007A440000C8422DE9F0416F
:10D90800012482B00746904600780DF103020E46C6
:10D918008DF8034000F038FB9DF8035001902DB1BD
:10D92800002454B10134A542FBD10198C0F3072368
:10D938003070737002B0BDE8F0814146304697ED13
:10D94800010A01AAFDF7D2F9ECE700BF2DE9F04181
:10D95800052482B00646904600780DF103020D4674
:10D968008DF8034000F010FB9DF80370019017B389
:10D978000124E3B2013B042B0BD8DFE803F033109A
:10D988002B2303004146284696ED040A01AAFDF719
:10D99800ADF9A74204F101030CD01C46E9E7414662
:10D9A800284696ED060A01AAFDF7A0F9A74204F158
:10D9B8000103F2D10198C0F3072328706B7002B0FD
:10D9C800BDE8F0814146284696ED030A01AAFDF715
:10D9D8008DF9DEE74146284696ED020A01AAFDF7D1
:10D9E80085F9D6E74146284696ED050A01AAFDF7CE
:10D9F8007DF9CEE70023034A836042618261C360F8
:10DA080003617047000048424FF6FF73994220D0E7
:10DA1800B1F5967F10B504461CD0B1F5E16F15D06D
:10DA28009FED0E0ADFED0E7A642907FE800A1BF0CF
:10DA380035FF9FED0C7AB0EEC00AC7EE007A0A4AAD
:10DA48000A4BC4ED027AE260236110BD9FED040A1F
:10DA5800EDE770479FED060AE9E700BF304C463F07
:10DA68009A99193F000016434F57213C841C4BBF1D
:10DA78000AD7233FF0B587B004AB05AF0546007859
:10DA8800CDE900370DF10F030E4600F05BFA9DF962
:10DA98000F0098B90124E3B2013B39463046032B05
:10DAA8001DD8DFE803F017120D02FDF707F985ED21
:10DAB800030A0134062CEED19DF90F0007B0F0BD22
:10DAC800FDF7FCF885ED020AF3E7FDF7F7F885EDB9
